:1000000019C0B4C0B3C0B2C0B1C0B0C0AFC0AEC000
:10001000ADC0ACC0ABC0AAC0A9C0A8C0A7C0A6C094
:10002000A5C0A4C0A3C0A2C0A1C0A0C09FC09EC0C4
:100030009DC09CC011241FBECFEFD4E0DEBFCDBF5A
:0800400092D085C0F894FFCFB7
:0D00480048656C6C6F20576F726C6421006E
:100056002FEF89EF90E0215080409040E1F700C0FB
:10006600000068D082E02AD088E228D08FE026D02F
:1000760086E024D081E022D080E820D051D068E408
:0800860070E080E001D0089554
:10008E00CF92DF92EF92CF936B01E82EC0E002C0C9
:10009E0037D0CF5FAE2DC6018C0F911DA11DFC0177
:1000AE008491A7FD80818111F3CFCF91EF90DF90E6
:0400BE00CF90089542
:1000C200CF93C82F8BB914D08FE19EE40197F1F73B
:1000D20000C0000020E1C29FC00111248BB908D0EA
:1000E2008FE19EE40197F1F700C00000CF910895DF
:1000F20088B1806288B98FE19EE40197F1F700C070
:0C010200000098B180E2892788B90895B8
:10010E00CF93C82F8BB9EEDF20E1C29FC00111241F
:08011E008BB9E8DFCF910895D1
:1001260088B1816088B98FE19EE40197F1F700C03C
:040136000000089528
:10013A0088B18E7F88B98FE19EE40197F1F700C0FC
:04014A000000089514
:0E014E00EC010FD00DD0CE010DD0CE010CD0A3
:0A015C008FEF87B980EF8AB908958C
:06016600FADF76DFFFCF97
:02016C0049CF79
:02016E000895F2
:020170000895F0
:020172000895EE
:0201740067DF43
:00000001FF
