:1000000019C04AC249C248C247C246C245C244C2D8
:1000100043C242C241C240C23FC23EC23DC23CC2D4
:100020003BC23AC239C238C237C236C235C234C204
:1000300033C232C211241FBECFEFD4E0DEBFCDBF2A
:08004000BBD00DC2F894FFCF04
:10004800303132333435363738390074656D706580
:100058007261747572653A200068756D69646974B7
:06006800793A200025009A
:0A006E0048656C6C6F21203A2900F0
:10007800CF92DF92EF920F931F93CF93DF93CDB779
:10008800DEB72B970FB6F894DEBF0FBECDBF9C012D
:100098008B010F2EF8E4CF2EF0E0DF2EF0E0EF2EEC
:1000A800F02D8BE0F601DE0111967E2DC7D13323AA
:1000B8004CF4F80131968DE2D8018C933195219555
:1000C800310901C0F801C90131966AE070E07AD1BE
:1000D800CB010097C9F71082C9016AE070E072D1BC
:1000E800A1E0B0E0AC0FBD1FA80FB91F8C9182939F
:1000F800262F372F2115310579F7C8012B960FB612
:10010800F894DEBF0FBECDBFDF91CF911F910F9145
:08011800EF90DF90CF900895F5
:10012000AF92BF92CF92DF92EF92FF920F931F9305
:10013000CF93DF9300D000D00F92CDB7DEB76C0124
:100140005B0131D17ED0082F882371F001E023C0FC
:10015000E12EF12C4ED1E1E0F0E0EC0FFD1FEE0DB1
:10016000FF1D80831F5F01C010E0153088F35981A7
:100170008A8190E0850F911D4B81840F911D2C8108
:10018000820F911D2D8130E08217930721F4F50134
:100190005083F6014083802F0F900F900F900F90A7
:1001A0000F90DF91CF911F910F91FF90EF90DF9013
:0801B000CF90BF90AF900895BD
:1001B800CF93DF93CDB7DEB727970FB6F894DEBF9E
:1001C8000FBECDBF55D182D019821A82BE016E5F93
:1001D8007F4FCE010196A0DF7E0123E0E20EF11CE5
:1001E8008981B70190E044DF8E010A5F1F4F8A8141
:1001F800B80190E03DDF63E570E080E089D0B701A9
:1002080080E886D08FED0DD180EC9CD061E670E05F
:1002180080E07ED0B80180E87BD06CE670E080E0BA
:1002280077D08FEF9FE423EC815090402040E1F796
:0A02380000C0000081E086D0C7CFAF
:10024200CF9313D1C0E005C0CF5F82E08A95F1F76A
:1002520000C01ED1882311F0C436B0F3C43680F436
:10026200C0E005C0CF5F82E08A95F1F700C010D1EF
:10027200811102C0C436B0F3C43620F081E003C05D
:0A02820081E001C080E0CF910895F3
:10028C00CF93C0E005C0CF5F82E08A95F1F700C044
:10029C00FAD0882351F0C436B0F3C0E007C0CF5F6A
:1002AC0082E08A95F1F700C001C0C0E0ECD081116A
:1002BC0002C0C436A0F38AE68A95F1F700C0E3D0F9
:0802CC00811181E0CF9108953A
:1002D4008FE39CE90197F1F700C0000082E034D07D
:1002E40088E232D08FE030D086E02ED081E02CD06E
:1002F40080E82AD06EE670E080E00CD09FEF29E61B
:1003040088E1915020408040E1F700C0000081E086
:040314001BD008955D
:10031800CF92DF92EF92CF936B01E82EC0E002C03C
:1003280080D0CF5FAE2DC6018C0F911DA11DFC01A1
:100338008491A7FD80818111F3CFCF91EF90DF9059
:04034800CF900895B5
:10034C00CF93C82F9CD0CBB95DD08FE097E20197AB
:10035C00F1F700C0000020E1C29FC00111248BB94D
:10036C0051D08FE097E20197F1F700C00000CF91D8
:02037C000895E2
:10037E00AA1BBB1B51E107C0AA1FBB1FA617B707BD
:10038E0010F0A61BB70B881F991F5A95A9F78095D9
:08039E009095BC01CD0108950A
:1003A60088E387B988B1877F88B98FE99CE8019788
:1003B600F1F700C0000088B1886088B99AE69A957E
:0603C600F1F700C00895EC
:1003CC0097FB072E16F4009406D077FD08D0D1DFEA
:1003DC0007FC05D03EF4909581959F4F089570953C
:0603EC0061957F4F0895AA
:1003F200CF93DF9380E0D0E005C0C82FCC0F45DF5C
:0E0402008C2BDF5FD830C8F3DF91CF910895C7
:1004100088B1806288B98FE097E20197F1F700C058
:0A042000000088B18F7D88B90895AF
:10042A00CF93C82F29D0CBB9EEDF20E1C29FC001FC
:0A043A0011248BB9E8DFCF9108957B
:10044400992777FD05C005900D920197E1F708956E
:0A04540001900D920197E1F7089561
:0E045E00EC011DD01BD0CE011BD0CE011AD058
:0C046C0080E387B988B1877F88B90895C4
:0A04780088E387B980EF8AB9089580
:0804820088B1806188B908957A
:08048A0088B18F7E88B9089546
:0604920086B18870089598
:02049800B3CDE2
:02049A000895C3
:02049C000895C1
:02049E000895BF
:0204A000D1DDAC
:00000001FF
