:1000000019C0BEC0BDC0BCC0BBC0BAC0B9C0B8C0BA
:10001000B7C0B6C0B5C0B4C0B3C0B2C0B1C0B0C044
:10002000AFC0AEC0ADC0ACC0ABC0AAC0A9C0A8C074
:10003000A7C0A6C011241FBECFEFD4E0DEBFCDBF46
:080040009CD08FC0F894FFCFA3
:0A00480048656C6C6F21203A290016
:100052002FEF89EF90E0215080409040E1F700C0FF
:10006200000074D082E037D088E235D08FE033D000
:1000720086E031D081E02FD080E82DD05DD068E4D9
:1000820070E080E00ED02FEF83ED90E321508040AE
:100092009040E1F700C0000059D081E01CD04CD064
:0200A2000895BF
:1000A400CF92DF92EF92CF936B01E82EC0E002C0B3
:1000B40036D0CF5FAE2DC6018C0F911DA11DFC0162
:1000C4008491A7FD80818111F3CFCF91EF90DF90D0
:0400D400CF9008952C
:1000D800CF93C82F8BB914D08FE19EE40197F1F725
:1000E80000C0000020E1C29FC00111248BB908D0D4
:1000F8008FE19EE40197F1F700C00000CF910895C9
:1001080088B1806288B98FE19EE40197F1F700C059
:0A011800000088B18F7D88B90895BA
:10012200CF93C82F8BB9EFDF20E1C29FC00111240A
:080132008BB9E9DFCF910895BC
:10013A0088B1806188B98FE19EE40197F1F700C028
:04014A000000089514
:10014E0088B18F7E88B98FE19EE40197F1F700C0E8
:04015E000000089500
:0E016200EC010FD00DD0CE010DD0CE010CD08F
:0A01700088E387B980EF8AB908958B
:06017A00FADF6ADFFFCF8F
:020180003FCF6F
:020182000895DE
:020184000895DC
:020186000895DA
:020188005DDF39
:00000001FF
